{
  "contractName": "Election",
  "abi": [
    {
      "anonymous": false,
      "inputs": [
        {
          "indexed": false,
          "internalType": "uint256",
          "name": "id",
          "type": "uint256"
        },
        {
          "indexed": false,
          "internalType": "string",
          "name": "name",
          "type": "string"
        },
        {
          "indexed": false,
          "internalType": "string",
          "name": "party",
          "type": "string"
        },
        {
          "indexed": false,
          "internalType": "uint256",
          "name": "votes",
          "type": "uint256"
        }
      ],
      "name": "createdCandidate",
      "type": "event"
    },
    {
      "anonymous": false,
      "inputs": [
        {
          "indexed": false,
          "internalType": "string",
          "name": "party",
          "type": "string"
        }
      ],
      "name": "existingParty",
      "type": "event"
    },
    {
      "anonymous": false,
      "inputs": [
        {
          "indexed": false,
          "internalType": "address",
          "name": "voter",
          "type": "address"
        }
      ],
      "name": "voteAlreadyCasted",
      "type": "event"
    },
    {
      "constant": true,
      "inputs": [],
      "name": "candidateCount",
      "outputs": [
        {
          "internalType": "uint256",
          "name": "",
          "type": "uint256"
        }
      ],
      "payable": false,
      "stateMutability": "view",
      "type": "function"
    },
    {
      "constant": true,
      "inputs": [
        {
          "internalType": "uint256",
          "name": "",
          "type": "uint256"
        }
      ],
      "name": "candidates",
      "outputs": [
        {
          "internalType": "uint256",
          "name": "id",
          "type": "uint256"
        },
        {
          "internalType": "string",
          "name": "name",
          "type": "string"
        },
        {
          "internalType": "string",
          "name": "party",
          "type": "string"
        },
        {
          "internalType": "uint256",
          "name": "votes",
          "type": "uint256"
        }
      ],
      "payable": false,
      "stateMutability": "view",
      "type": "function"
    },
    {
      "constant": true,
      "inputs": [],
      "name": "voters",
      "outputs": [
        {
          "internalType": "uint256",
          "name": "",
          "type": "uint256"
        }
      ],
      "payable": false,
      "stateMutability": "view",
      "type": "function"
    },
    {
      "constant": false,
      "inputs": [
        {
          "internalType": "string",
          "name": "_name",
          "type": "string"
        },
        {
          "internalType": "string",
          "name": "_party",
          "type": "string"
        }
      ],
      "name": "createCandidate",
      "outputs": [],
      "payable": false,
      "stateMutability": "nonpayable",
      "type": "function"
    },
    {
      "constant": false,
      "inputs": [
        {
          "internalType": "uint256",
          "name": "_candidateId",
          "type": "uint256"
        }
      ],
      "name": "castingVote",
      "outputs": [],
      "payable": false,
      "stateMutability": "nonpayable",
      "type": "function"
    }
  ],
  "bytecode": "0x608060405260008055600060035534801561001957600080fd5b50610b65806100296000396000f3fe608060405234801561001057600080fd5b50600436106100575760003560e01c80633477ee2e1461005c578063350580ea1461017d5780639ab1c0ed1461019b578063a90c30c2146102ed578063a9a981a31461031b575b600080fd5b6100886004803603602081101561007257600080fd5b8101908080359060200190929190505050610339565b604051808581526020018060200180602001848152602001838103835286818151815260200191508051906020019080838360005b838110156100d85780820151818401526020810190506100bd565b50505050905090810190601f1680156101055780820380516001836020036101000a031916815260200191505b50838103825285818151815260200191508051906020019080838360005b8381101561013e578082015181840152602081019050610123565b50505050905090810190601f16801561016b5780820380516001836020036101000a031916815260200191505b50965050505050505060405180910390f35b610185610499565b6040518082815260200191505060405180910390f35b6102eb600480360360408110156101b157600080fd5b81019080803590602001906401000000008111156101ce57600080fd5b8201836020820111156101e057600080fd5b8035906020019184600183028401116401000000008311171561020257600080fd5b91908080601f016020809104026020016040519081016040528093929190818152602001838380828437600081840152601f19601f8201169050808301925050505050505091929192908035906020019064010000000081111561026557600080fd5b82018360208201111561027757600080fd5b8035906020019184600183028401116401000000008311171561029957600080fd5b91908080601f016020809104026020016040519081016040528093929190818152602001838380828437600081840152601f19601f82011690508083019250505050505050919291929050505061049f565b005b6103196004803603602081101561030357600080fd5b81019080803590602001909291905050506107be565b005b610323610a85565b6040518082815260200191505060405180910390f35b6001602052806000526040600020600091509050806000015490806001018054600181600116156101000203166002900480601f0160208091040260200160405190810160405280929190818152602001828054600181600116156101000203166002900480156103eb5780601f106103c0576101008083540402835291602001916103eb565b820191906000526020600020905b8154815290600101906020018083116103ce57829003601f168201915b505050505090806002018054600181600116156101000203166002900480601f0160208091040260200160405190810160405280929190818152602001828054600181600116156101000203166002900480156104895780601f1061045e57610100808354040283529160200191610489565b820191906000526020600020905b81548152906001019060200180831161046c57829003601f168201915b5050505050908060030154905084565b60035481565b600080541415610546576000808154600101919050819055506040518060800160405280600054815260200183815260200182815260200160008152506001600080548152602001908152602001600020600082015181600001556020820151816001019080519060200190610516929190610a8b565b506040820151816002019080519060200190610533929190610a8b565b50606082015181600301559050506107ba565b60008090506000600190505b600054811161067457826040516020018082805190602001908083835b60208310610592578051825260208201915060208101905060208303925061056f565b6001836020036101000a038019825116818451168082178552505050505050905001915050604051602081830303815290604052805190602001206001600083815260200190815260200160002060020160405160200180828054600181600116156101000203166002900480156106415780601f1061061f576101008083540402835291820191610641565b820191906000526020600020905b81548152906001019060200180831161062d575b505091505060405160208183030381529060405280519060200120141561066757600191505b8080600101915050610552565b50600081141561071b5760008081546001019190508190555060405180608001604052806000548152602001848152602001838152602001600081525060016000805481526020019081526020016000206000820151816000015560208201518160010190805190602001906106eb929190610a8b565b506040820151816002019080519060200190610708929190610a8b565b50606082015181600301559050506107b8565b7fee39785d7092279855a67cbe1515bbeb00df734ecd4845eff41157e9dcc4f54b826040518080602001828103825283818151815260200191508051906020019080838360005b8381101561077d578082015181840152602081019050610762565b50505050905090810190601f1680156107aa5780820380516001836020036101000a031916815260200191505b509250505060405180910390a15b505b5050565b6000811180156107d057506000548111155b6107d957600080fd5b600060035414156108755760036000815480929190600101919050555060016000828152602001908152602001600020600301600081548092919060010191905055503360026000600354815260200190815260200160002060006101000a81548173ffffffffffffffffffffffffffffffffffffffff021916908373ffffffffffffffffffffffffffffffffffffffff160217905550610a82565b60008090506000600190505b60035481116109815733604051602001808273ffffffffffffffffffffffffffffffffffffffff1673ffffffffffffffffffffffffffffffffffffffff1660601b8152601401915050604051602081830303815290604052805190602001206002600083815260200190815260200160002060009054906101000a900473ffffffffffffffffffffffffffffffffffffffff16604051602001808273ffffffffffffffffffffffffffffffffffffffff1673ffffffffffffffffffffffffffffffffffffffff1660601b815260140191505060405160208183030381529060405280519060200120141561097457600191505b8080600101915050610881565b506000811415610a1c5760036000815480929190600101919050555060016000838152602001908152602001600020600301600081548092919060010191905055503360026000600354815260200190815260200160002060006101000a81548173ffffffffffffffffffffffffffffffffffffffff021916908373ffffffffffffffffffffffffffffffffffffffff160217905550610a80565b7f4491116408d9d965285de06639ae58b1ddf22fa1678d0060c59429caa6da480933604051808273ffffffffffffffffffffffffffffffffffffffff1673ffffffffffffffffffffffffffffffffffffffff16815260200191505060405180910390a15b505b50565b60005481565b828054600181600116156101000203166002900490600052602060002090601f016020900481019282601f10610acc57805160ff1916838001178555610afa565b82800160010185558215610afa579182015b82811115610af9578251825591602001919060010190610ade565b5b509050610b079190610b0b565b5090565b610b2d91905b80821115610b29576000816000905550600101610b11565b5090565b9056fea265627a7a72315820c9c831c143fc1bef1a2130f171729fb20f37816480924c290b695c76aaa221ed64736f6c634300050c0032",
  "source": "pragma solidity >=0.5.0 <0.6.0;\n\n\n\ncontract Election\n{\n\tuint public candidateCount = 0;\n\n\tstruct Candidate\n\t{\n\t\tuint id;\n\t\tstring name;\n\t\tstring party;         //party to which the candidate belongs\n\t\tuint votes;\n\n\t}\n\n\tevent existingParty(\n\t\tstring party\n\t);\n\n\tevent voteAlreadyCasted(\n\t\taddress voter\n\t);\n\n\tevent createdCandidate(\n\t\t\tuint id,\n\t\t\tstring name,\n\t\t\tstring party,         //party to which the candidate belongs\n\t\t\tuint votes\n\t);\n\n\tmapping (uint => Candidate) public candidates;\n\n\tfunction createCandidate(string memory _name,string memory _party) public\n\t{\n\t\tif(candidateCount == 0)\n\t\t{\n\t\t\t++candidateCount;\n\t\t\tcandidates[candidateCount] = Candidate(candidateCount,_name,_party,0);\n\t\t}\n\t\telse\n\t\t{\n\t\t\tuint flag = 0;\n\t\t\tfor(uint i=1;i<=candidateCount;i++)\n\t\t\t{\n\t\t\t\tif(keccak256(abi.encodePacked((candidates[i].party))) == keccak256(abi.encodePacked((_party))) )\n\t\t\t\t{\n\t\t\t\t\tflag = 1;\n\t\t\t\t}\n\t\t\t}\n\n\t\t\tif(flag == 0)\n\t\t\t{\n\t\t\t\t++candidateCount;\n\t\t\t\tcandidates[candidateCount] = Candidate(candidateCount,_name,_party,0);\n\n\t\t\t}\n\t\t\telse\n\t\t\t{\n\t\t\t\temit existingParty(_party);\n\t\t\t}\n\t    }\n\t}\n\n\n\tmapping(uint => address ) voteCasted;\n\tuint public voters = 0;\n\n\tfunction castingVote(uint _candidateId) public\n\t{\n\t\trequire(_candidateId > 0 && _candidateId <= candidateCount);\n\n\t\tif(voters == 0)\n\t\t{\n\t\t\tvoters++;\n\t\t\tcandidates[_candidateId].votes++;\n\t\t\tvoteCasted[voters] = msg.sender;\n\n\t\t}\n\t\telse\n\t\t{\n\t\t\tuint flag = 0;\n\n\t\t\tfor(uint i=1;i<=voters;i++)\n\t\t\t{\n\t\t\t\tif(keccak256(abi.encodePacked((voteCasted[i]))) == keccak256(abi.encodePacked((msg.sender))))\n\t\t\t\t{\n\t\t\t\t\tflag = 1;\n\t\t\t\t}\n\t\t\t}\n\n\t\t\tif(flag == 0)\n\t\t\t{\n\t\t\t\tvoters++;\n\t\t\t\tcandidates[_candidateId].votes++;\n\t\t\t\tvoteCasted[voters] = msg.sender;\n\n\t\t\t}\n\t\t\telse\n\t\t\t{\n\t\t\t\temit voteAlreadyCasted(msg.sender);\n\t\t\t}\n\t\t}\n\n\n\t}\n\n\n\n\n}\n",
  "sourcePath": "/home/rohit/BLOCKCHAIN/election-system/src/contracts/Election.sol",
  "compiler": {
    "name": "solc",
    "version": "0.5.12+commit.7709ece9.Emscripten.clang"
  },
  "schemaVersion": "3.0.20",
  "updatedAt": "2020-02-01T17:58:41.374Z",
  "networkType": "ethereum",
  "devdoc": {
    "methods": {}
  },
  "userdoc": {
    "methods": {}
  }
}